:020000040000FA
:2000000002075CC2AFF5088111FFFFC2AFF5088123FFFFC2AFF5088135FFFFC2AFF508815C
:2000200047FFFFC2AFF5088159FFFFC2AFF508816BFFFFC2AFF508817DFFFFC2AFF5088184
:200040008FFFFFC2AFF50881A1FFFFC2AFF50881B3FFFFC2AFF50881C5FFFFC2AFF5088144
:20006000D7FFFFC2AFF50881E9FFFFC2AFF50881FBFFFFC2AFF508A10DFFFFC2AFF508A1C4
:200080001FFFFFC2AFF508A131FFFFC2AFF508A143FFFFFF758701002274FC120722750A6D
:2000A00004750B00780A12074B74021207917A007B0079081205597402120707851E828590
:2000C0001F83E0F47003A3E0F470030201FD851E82851F83E0F8A3E0F9E84970030201FD09
:2000E0007402120787E0687003A3E0697010750901024030C2AF75C9AB75C95B80FE53BE50
:20010000FBE59DA2E650FAE5C654804449F5C6E59E547F644970F853C67FE59EA2E740FA80
:2001200053C680E59E547F70FA43BE049062707408F0750A00F50B780A12074B7C807D01B4
:200140007A007B0079081205597402120707900186E0F50AA3E0F50B7409780A12076BE542
:200160000A2408FF53B4F375BC0075BC007CFC7D077A047B0079081203817E09EFC3940A0B
:20018000401C800774086E70027E567C007D087A007B00EEF91203810EEEC39F40E6851EB2
:2001A00082851F83E5BDF9E5BCF8E0687003A3E069704A851E82851F83E0F8A3E0F97402EB
:2001C000120787E8F0A3E9F0851E82851F8374FFF0A3F07409F5D575D480750A01780A12C5
:2001E000074B74021207917A007B101205E07402120707C2AF75C9AB75C95B80FE750A0407
:20020000780A12074B74021207917A007B0079011205597402120707851E82851F83E0F443
:200220007003A3E0F47003020371851E82851F83E0F8A3E0F9E849700302037174021207A2
:2002400087E0F8A3E0F9851E82851F83E0687003A3E0697010750900020830C2AF75C9AB3E
:2002600075C95B80FE74FF68700374FF69600302037153BEFBE59DA2E650FAE5C654804441
:2002800049F5C6E59E547F644970F853C67FE59EA2E740FA53C680E59E547F70FA43BE04B3
:2002A0009062707408F0750A00F50B780A12074B7C807D017A007B0079011205597402122A
:2002C0000707900186E0F50AA3E0F50B7409780A12076BE50A244FFF53B4F375BC0075BC57
:2002E000007CFC7D077A047B0079011203817E02EFC39403401C800774086E70027E567CA1
:20030000007D087A007B00EEF91203810EEEC39F40E6851E82851F83E5BDF9E5BCF8E0689A
:200320007003A3E069704A851E82851F83E0F8A3E0F97402120787E8F0A3E9F0851E8285F0
:200340001F8374FFF0A3F07409F5D575D480750A01780A12074B74021207917A007B021266
:2003600005E07402120707C2AF75C9AB75C95B80FE43BE03120094C2AF75C9AB75C95B8074
:20038000FE74F7120646E9FEE5C7FF740F5EF50A750B00740B780A120738EA2400F8EB352C
:2003A0000BF9E82400E93480F9A2AFE433F50AC2AFEEC4540FFAE5C754F84AF5C7E9900930
:2003C00080F0E8A3F0A37470F0A374BDF0EC900985F0EDFC900984E054E04CF09009867414
:2003E00020F0A37442F07409F5D575D48075D601000000000000000000000075D701E5D73F
:20040000A2E040FA8FC7E50AA2E092AF7F020206ACE5096007E508D2AF024033E508D2AF3D
:20042000020833E5096007E508D2AF02403BE508D2AF02083BE5096007E508D2AF02404344
:20044000E508D2AF020843E5096007E508D2AF02404BE508D2AF02084BE5096007E508D2BA
:20046000AF024053E508D2AF020853E5096007E508D2AF02405BE508D2AF02085BE50960EC
:2004800007E508D2AF024063E508D2AF020863E5096007E508D2AF02406BE508D2AF02087F
:2004A0006BE5096007E508D2AF024073E508D2AF020873E5096007E508D2AF02407BE50801
:2004C000D2AF02087BE5096007E508D2AF024083E508D2AF020883E5096007E508D2AF02CE
:2004E000408BE508D2AF02088BE5096007E508D2AF024093E508D2AF020893E5096007E551
:2005000008D2AF02409BE508D2AF02089BE5096007E508D2AF0240A3E508D2AF0208A3E5BA
:20052000096007E508D2AF0240ABE508D2AF0208ABE5096007E508D2AF0240B3E508D2AFA7
:200540000208B3E5096007E508D2AF0240BBE508D2AF0208BB0002055574F5120646890A35
:20056000740F550AF50C750D00740B780C120738EA2400F8EB3480F9E82400E9350DF9E50F
:20058000C7F50BA2AFE433F50CC2AFE50AC4540FFAE5C754F84AF5C7740B120787E0FEA30C
:2005A000E0FFEE4F602CEEFAEFFB88828983E08C828D83F088828983A3A882A9838C828D13
:2005C00083A3AC82AD83EA24FF1AEB34FFFBEA4B70D8850BC7E50CA2E092AF7F040206AC98
:2005E00074F7120646ED900980F0ECA3F0A37462F0A37473F0A3E0541FF07409120787E0F7
:20060000F50AA3E0F50BE50A333354FC900985F07406780A12076BE50A900984F09009860A
:200620007412F0A37442F053D1FE75D601EA906271F0EBA3F0906270E0D2E1F0E0A2E74044
:20064000FB7F020206AC251EC582C0E0E51F34FFC583C0E0E51EC3958224F910AF08858358
:200660001F85821E800885831F85821ED2AFCEF0A3E520F0A3780AE608F0A3DEFAEFF0A38B
:20068000E58124FBF8E608F0A3E608F0A30808E608F0A3E608F0A315811581D0E0FED0E03F
:2006A000F815811581E8C0E0EEC0E022851F83851E82E0A3FEE0A3F520780AE0A3F608DF97
:2006C000FAE0A3FFE0A3C0E0E0A3C0E0E0A3C0E0E0A3C0E010AF0885821E85831F800885F2
:2006E000821E85831FD2AFD083D08222251EF58210AF08F51E400C151F8008F51E400215E5
:200700001FD2AF851F832200C0D0251E10AF08F51E500C051F8008F51E5002051FD2AFD061
:20072000D022251E10AF08F51E400C151F8008F51E4002151FD2AF22700422600D18C6C3D2
:2007400033C608C633C6D5E0F4182274028000C0E0F4041206ECD0E012077A2275D0007545
:20076000813F751E80751F01020799600C08C6C313C618C613C6D5E0F422CAC0E0E6F0A334
:2007800008DAFAD0E0FA22251EF582E4351FF58322251EFCE4351FFD2212009912079F002C
:2007A000000080FBFFFFFFFFFFFFFFFFFFFFFFFFFFFFFFFFFFFFFFFFFFFFFFFFFFFFFFFFDA
:2007C000FFFFFFFFFFFFFFFFFFFFFFFFFFFFFFFFFFFFFFFFFFFFFFFFFFFFFFFFFFFFFFFF39
:2007E000FFFFFFFFFFFFFFFFFFFFFFFFFFFFFFFFFFFFFFFFFFFFFFFFFFFFFFFFFFFFFFFF19
:20080000A4B8FFFF0000005C41414141FFFFFFFFFFFFFFFFFFFFFFFFFFFFFFFFFFFFFFFF32
:20082000000102030405060708090A0BFFFFFFFF020B5B02199BFFFFFFFFFFFFFFFFFFFF66
:20084000FFFFFFFFFFFFFFFFFFFFFFFFFFFFFFFFFFFFFFFFFFFFFFFFFFFFFF021DA9FFFFED
:20086000FFFFFFFFFFFFFFFFFFFFFFFFFFFFFFFFFFFFFFFFFFFFFFFFFFFFFFFFFFFFFFFF98
:20088000FFFFFF021A0EFFFFFFFFFFFFFFFFFFFFFFFFFFFFFFFFFFFFFFFFFFFFFFFFFFFF4B
:2008A000FFFFFFFFFFFFFFFFFFFFFFFFFFFFFFFFFFFFFF021807FF0000B400002800280027
:2008C000283075A000A000A000A00000080008E001F000100010001000100010001000503A
:2008E000005000500010001000D0070000000000000F00010005003075070010000100810E
:20090000FF00000000FFB61FD41FBC1FFF02020208025000A0000000E80302DCB1010000BC
:20092000CEB102E0B10100009B0802E6B1010000B90202E0B10100009C0802E8B1010000D8
:20094000CF0202E0B10100009D0802EAB1010000D10202E0B10100009E0802ECB10800003B
:20096000D20202E0B10100009F08020AB2010000A008FF0100FF2002DCB1010000D7B102C8
:20098000E0B1010000040902F0B1000000000002E4B10300001F03382538253825382538AD
:2009A000253825382538253825382538253825382584279C277E27FF020202020202020208
:2009C00002010D000000100102DCB1010000D4B102E0B101000046090206B20100005907E3
:2009E00002E0B101000047090204B2010000F2B102E0B101000048090202B2010000F6B174
:200A000002E0B101000049090200B2010000C7B002E0B10100004A0902FEB10100000CB26D
:200A200002E0B10100004B0902FCB101000011B102E0B10100004C0902FAB101000070B0A5
:200A400002E0B10100004D0902F8B101000041B102E0B10100004E0902F4B10100004F0923
:200A60001C02DCB1010000D1B102E0B1010000EE091030B00200008A0702E4B10300008C14
:200A80000702E2B10100004FB102E0B1010000EE091040B00200008B0702E4B1030000926E
:200AA0000702E2B10100005CB1FFFFFF000801010003020106000000000000000000000079
:200AC0000000000000000000000000000000000000FFFF0110002000E803E5C754F84405BB
:200AE000F5C779012200000080FB120ADAB90003020B45E479217808B800028004F709D80B
:200B0000FCE479297802B800028004F709D8FCE490028078C579068002F0A3D8FCD9FA7ADF
:200B2000447B089008B6782579038015E493A3AD82AE838A828B83F0A3AA82AB838D828ED4
:200B400083D8E9D9E77582A87583FF7405120B6D7582E575830A7400120B6D75D0007581E1
:200B60003F751980751A02759F00020AEAC09FF59FE473D09F22D083D082C09FE493C0E097
:200B8000740193C0E0740293F59F22E066701008A3E066700A08A3E066700408A3E0662245
:200BA000E4936670130874019366700C08740293667005087403936622C3E7960809E7968F
:200BC0000809E7960809E79622C3E09608A3E09608A3E09608A3E09622C00AC3E096F50A17
:200BE00008A3E096420A08A3E096420A08A3E096450A7001D3D00A22C3E49396087401938B
:200C0000960874029396087403939622080808EAC0E0EBC0E086F0E7A4FA180986F0E7A483
:200C20002AFA180986F0E7A42AFA180986F0E7A42AFA1986F0E7A4FBE5F02AFA190886F05F
:200C4000E7A42BFBE5F03AFA190886F0E7A42BFBE5F03AFA18180986F0E7A4C5F02BFBE490
:200C60003AFA1908E7C5F0C6A426F6E5F03BFBE43AFA1886F0E7A4F6E5F00826F6E43B08AB
:200C8000F6E43A08F6D0E0FBD0E0FA226016080808C6C313C618C613C618C613C618C6137C
:200CA000C6D5E0EA227009080808226016181818C6C333C608C633C608C633C608C633C665
:200CC000D5E0EA22E627F60809E637F60809E637F60809E637F622E026F608A3E036F60807
:200CE000A3E036F608A3E036F622E026F008A3E036F008A3E036F008A3E036F022C3E69701
:200D0000F60809E697F60809E697F60809E697F622C3E096F008A3E096F008A3E096F008DC
:200D2000A3E096F022E657F60809E657F60809E657F60809E657F622E056F608A3E056F664
:200D400008A3E056F608A3E056F622E056F008A3E056F008A3E056F008A3E056F022E0F632
:200D600008A3E0F608A3E0F608A3E0F622E6F008A3E6F008A3E6F008A3E6F022E0FAA3E0F6
:200D8000FBA3E0FCA3E0FD22EAF0A3EBF0A3ECF0A3EDF022E0F8A3E0F9A3E0FAA3E0FB224D
:200DA000E8F0A3E9F0A3EAF0A3EBF022CAC0E0E6F0A308DAFAD0E0FA22CAC0E0E0A3C58203
:200DC000CCC582C583CDC583F0A3C582CCC582C583CDC583DAE6D0E0CA22C3E498F8E49949
:200DE000F9120E1B8026C3E49AFAE49BFBE920E7E9120E1BE498F8E499F922C3E498F8E429
:200E000099F9120E1BE498F8E499F9C3E49AFAE49BFB22EB20E7CFE920E7E0B90010BB002F
:200E200008E88AF084F8AAF022E4FBC8FA22EB70227B10C833C8C933C9335007C39AC3DB38
:200E4000F280069A50012ADBEAC833F4C8C933F4C9FA2275F008E4C833C8C933C933C99A45
:200E6000C99B5004C92AC93BD5F0ECFBC833F4C8E4C9FA22600D08C6A2E713C618C613C643
:200E8000D5E0F322600C08C6C313C618C613C6D5E0F422700422600D18C6C333C608C63392
:200EA000C6D5E0F41822251910AF08F519400C151A8008F5194002151AD2AF2200C0D0259C
:200EC0001910AF08F519500C051A8008F5195002051AD2AFD0D0222519F58210AF08F519D5
:200EE000400C151A8008F5194002151AD2AF851A83222519F582E4351AF583222519FCE40B
:200F0000351AFD22E4732519C582C0E0E51A34FFC583C0E0E519C3958224F810AF0885830A
:200F20001A858219800885831A858219D2AFCEF0A3E520F0A3780AE608F0A3DEFAEFF0A3D6
:200F4000E58124FAF8E608F0A3E608F0A3E608F0A30808E608F0A3E608F0A315811581D084
:200F6000E0FED0E0F8158115811581E8C0E0EEC0E0222519C582C0E0E51A34FFC583C0E0B2
:200F8000E519C3958224F910AF0885831A858219800885831A858219D2AFCEF0A3E520F0B2
:200FA000A3780AE608F0A3DEFAEFF0A3E58124FBF8E608F0A3E608F0A30808E608F0A3E63B
:200FC00008F0A315811581D0E0FED0E0F815811581E8C0E0EEC0E022851A83851982E0A3CB
:200FE000FEE0A3F520780AE0A3F608DFFAE0A3FFE0A3C0E0E0A3C0E0E0A3C0E0E0A3C0E071
:20100000E0A3C0E010AF0885821985831A800885821985831AD2AFD083D082020B73851A95
:2010200083851982E0A3FEE0A3F520780AE0A3F608DFFAE0A3FFE0A3C0E0E0A3C0E0E0A3CD
:20104000C0E0E0A3C0E010AF0885821985831A800885821985831AD2AFD083D0822274043A
:201060008006740280027401C0E0F404120ED7D0E0120DAC227404800474028000CCC0E0F3
:20108000EDC0E0E519C39CCCAD1A50011D10AF068C198D1A80068C198D1AD2AF120DB9D059
:2010A000E0FDD0E0FC22D083D082E9C0E0E493A3C386F0C5F095F0F908E493A386F0C5F084
:2010C00095F0700BE493A3C3994005E9048002A3E475F002A42582F582E5F03583F583D061
:2010E000E0F9E493A3C0E0E493C0E022D083D082ECC0E0EDC0E0E493A3FCE493A3FDED4C00
:20110000600D121138EC24FFFCED34FFFD80EFE493A3FCE493A3FDED4C600D121177EC24F3
:20112000FFFCED34FFFD80EFD0E0FDD0E0FCE493A3C0E0E493C0E022C0E0C3E493960874F0
:2011400001939618400FE49366700808740193661870007019A3A3C3E49396087401939666
:2011600018A3A3400DD0E0D0E0D0E0021128A3A3A3A3A3A3D0E022C0E0C0F088F0E4936630
:2011800070080874019366187000A8F0A3A3700BD0F0D0E0D0E0D0E0021128A3A3D0F0D09F
:2011A000E022D083D082ECC0E0EDC0E0EEC0E0EFC0E0E493A3FCE493A3FDE493A3FEE49396
:2011C000A3FFEF4E4D4C601512121EEC24FFFCED34FFFDEE34FFFEEF34FFFF80E5E493A3F9
:2011E000FCE493A3FDE493A3FEE493A3FFEF4E4D4C601512125BEC24FFFCED34FFFDEE3497
:20120000FFFEEF34FFFF80E5D0E0FFD0E0FED0E0FDD0E0FCE493A3C0E0E493C0E022C0E002
:20122000C0F088F0120BF8A8F04007120BA0A8F0701AA3A3A3A3120BF8A8F0A3A3A3A340AE
:2012400013D0F0D0E0D0E0D0E0021208A3A3A3A3A3A3A3A3A3A3D0F0D0E022C0E0C0F088C7
:20126000F0120BA0A8F0A3A3A3A3700BD0F0D0E0D0E0D0E0021208A3A3D0F0D0E022FFFF60
:2012800074F5120F72EAFEEBFFEE2434F8EF3400F9880A890BEE2435F582EF3400F583E0C7
:2012A000F8EE2437F582EF3400F583E0F50CEC850CF0A4FCAAF0850CF0EDA42AFDE82CF80E
:2012C000E43DF97A257B00120E1BEA850A82850B83F0F8740758F97401B900028004C33333
:2012E000D9FCFAE8131313541FF8EE28F8EF3400F9E8245DF582E93400F583E05A6008EE64
:201300002434F582EF802CEE2434F582EF3400F583E0C0E0EE2436F582EF3400F583E0F55C
:20132000F0D0E084A8F0EE28F8EF3400F9E82438F582E93400F583E0F97F0402101E74F582
:20134000120F72EAFEEBFFEE2434F582EF3400F583E0C0E0EE2435F582EF3400F583D0E047
:20136000F08E828F83A3A3A3A3A3A3A3C082C0838E828F83A3A3A3A3A3E0F8A3E0F9D08369
:20138000D082E0C398F50AA3E099F50BEE247FF582EF3400F583E064017069EE2480F582DB
:2013A000EF3400F583E0F8A3E0F98E828F83A3A3A3A3A3A3A3E0FCA3E0FD8E828F83A3A3E3
:2013C000A3A3A3E0FAA3E0FBC3EA9CEB9D5010C3EC98ED99402EC3EA98EB995027800EC3CF
:2013E000EA98EB994007C3EC98ED9940177CE27D04EEFAEFFB122496EE247FF582EF3400D4
:20140000F583E4F0EE2434F8EF3400F9E8FCE9FDEE2435F582EF3400F583E0F8EE2437F5ED
:2014200082EF3400F583E0F50CE50A850CF0A4F50AAAF0850CF0E50BA42AF50BE8250AF8B3
:20144000E4350BF97A257B00120E1BEA8C828D83F0F8740758F97401B900028004C333D9DB
:20146000FCFAE8131313541FF8EE28F8EF3400F9E8245DF582E93400F583E05A6008EE2497
:2014800034F582EF802CEE2434F582EF3400F583E0C0E0EE2436F582EF3400F583E0F5F00F
:2014A000D0E084A8F0EE28F8EF3400F9E82438F582E93400F583E0F9121D95021339C082B9
:2014C000C083851982851A83E0F8A3E0F9C3EA9CEB9D5010C3EC98ED99401BC3EA98EB9911
:2014E0005014800EC3EA98EB994007C3EC98ED994004790180027900D083D08222EAC39C54
:20150000FAEB9DFB2274EF120F729003A8E064086005E06407702A9061C8E060249003D6DF
:20152000E0F4601DE0F875F003A4C8AAF02AF974D828FE740339FF8E828F83A3A3A3E07075
:2015400003021635906060E0C0E0EE2468F582EF3400F583D0E0F0750E4B750F05750A0069
:20156000750B00E5D914F50CE5D95403F510601774036510605CE50C6010EE2467F582EF9F
:201580003400F583E0700302161A900546E06401602AEE2482F582EF3400F583E06004780E
:2015A0000480027800850C0AE50AC398FA95E0FB1223648A0A8B0BEA450B7005122676803E
:2015C00074EE2482F582EF3400F583E070048A0E8B0FE50C6012850E82850F83F50DE5D91C
:2015E000F0A3150DE50D70F6EE2482F582EF3400F583E0604474FC250CF50C780E12106208
:20160000AC0CA910EEFAEFFB1225327402120EBCE97026AA0AAB0B1229C4793D8E828F830C
:20162000A3A3A3A3E0FA7B0012223EEEFAEFFB1224AE122544790080747403651060568592
:201640000C127513007812121062AC0EAD0FAA0AAB0B12250E7402120EBCEE2468F582EF7F
:201660003400F583E064807004747F8001E0F50E780E121066E510F50E780E121066A90C66
:20168000AC0AAD0B9003D6E0FA7B001222087402120EBC80139003A8E06408600BAC0EADA4
:2016A0000FEEFAEFFB12259E12268279017F0A02101E74F5120F7274FC120EA6EAFEEBFF83
:2016C000890AA2AFE433F50BC2AF806AEE2463F8EF3400F97A007B00A2AFE433F50CC2AF5C
:2016E00088828983E0FCA3E0FDEC4D603A88828983E0FAA3E0FB8A828B83E0FCA3E0FD8839
:20170000828983ECF0A3EDF08A828B83E4F0A3F088828983E0FCA3E0FDEC4D700A888289A6
:2017200083A3A3E4F0A3F0E50CA2E092AF1229C49004E9E004F0EE2463F582EF3400F583EE
:20174000E0F8A3E0F9E849603DEE2463F582EF3400F583E02402FAA3E03400FBEA2402F529
:201760000CEB3400F50D780C1210628A828B83E0FCA3E0F9EEFAEFFB1224D27402120EBC96
:20178000E970030216CC9004E9E060639004EAE0F89004E9E0C398500C7402650A7050904A
:2017A00004EBE0604A8E828F83A3A3A3A3E0851982851A83F0A3E4F09004E9E0F87402129C
:2017C0000EF2E8F0A3E4F09004E9E0F89004E8E028F07402120EF2AC82AD83851982851A4C
:2017E00083AA82AB83790112220E9004E9E4F0E50BA2E092AF7404120EBC021339FFFFFFAD
:201800008521878522C622C0E0C0D0E8C0E0E9C0E0EAC0E0EBC0E0ECC0E0EDC0E0EEC0E00F
:20182000C00AC00BC00CC00DC082C083C0F0A2AFE433FEC2AF759B00906182E0A2E0501227
:20184000E591A2E0500C7591FE740165217003121505E0A2E55051E591A2E5504B7591DF11
:201860009003A8E064076005E06408702374016521703579019003D6E0FA75F003A4CAA8C3
:20188000F028FB74D82AFA74033BFB1216B28018E0640D70139003CAE004F064287002E4BF
:2018A000F07A00E0F9122688906182E0A2E6400302194EE591A2E6400302194E7591BF909F
:2018C00003A8E0640570081225C81225D480031225CE752100122628E99003A9F079001274
:2018E000261C1224067A017B009003A7E0F91228A4907803E06442705590054AE014F070FA
:201900004DC2AF12190600782AD0E0F618D0E0F6E59F54077005750BFF8003750B7FC4C0F9
:20192000E07829E6F50A08E6550BF50B740B780A120E84D0E0250AF8906270E0A2E740F874
:20194000E8C333906272F0906270E0D2E0F0906181E0A2E35009E5E9A2E3500375E9F7A3A3
:20196000E0A2E75009E591A2E7500375917FEEA2E092AFD0F0D083D082D00DD00CD00BD054
:201980000AD0E0FED0E0FDD0E0FCD0E0FBD0E0FAD0E0F9D0E0F8D0D0D0E032C0E0C0D0C01E
:2019A00082C083906183E0A2E05009E5BFA2E0500375BFFEE0A2E15009E5BFA2E1500375DD
:2019C000BFFDE0A2E25009E5BFA2E2500375BFFBE0A2E35009E5BFA2E3500375BFF7E0A2FD
:2019E000E45009E5BFA2E4500375BFEFE0A2E55009E5BFA2E5500375BFDFE0A2E65009E513
:201A0000BFA2E6500375BFBFD083D0828088C0E0C0D0E8C0E0E9C0E0EAC0E0EBC0E0ECC08A
:201A2000E0EDC0E0C0F0E5A7A2E6500FE5A1A2E6500953A7BF75A1BF121A73E5A7A2E5501F
:201A40000CE5A1A2E5500653A7DF75A1DFE5A7A2E15009E5A1A2E1500375A1FDE5A7A2E262
:201A6000500CE5A1A2E2500653A7FB75A1FBD0F002198474F8120F727521019003A8E06430
:201A80000670151225628A828B83A3A3A3A3A3A3E0FAA3E0FB1225B6A2AFE433FED2AF907A
:201AA00003AEE0640170187A207B009003A7E0F91229167A207B009003A7E0F91228AA9093
:201AC0006182E0D2E6F0900547E0602185C62280169003ADE064017008E5C654F84405F529
:201AE000C653BEFC1218007401652160E4EEA2E092AF7F0102101EFF8E238F248582288532
:201B00008327851982851A83E0CEA3E0CF852882852783EBC9EAC8EDCBECCA75F010C3E887
:201B200033C8E933C9EA33CAEB33CBC3EA9EF526EB9FF525B35004AB25AA26EC33CCED3339
:201B4000CDD5F0DAAE23AF242274ED120F728A0A8B0B8C0C8D0D7413120EF2780E120D5E67
:201B6000780A790E120BB97512017513C87514007515005012780A790E120CFD7812790A08
:201B8000120BB950168010780E790A120CFD7812790E120BB940047901800279007F0C0228
:201BA000101E74ED120F728A0A8B0B8C0C8D0D7413120EF2780E120D5E780E790A120BB92C
:201BC0004011780A790E120CFDAA0AAB0BAC0CAD0D80227512007513007514007515017877
:201BE00012790E120CFD7812790A120CC4AA12AB13AC14AD1580A68A828B83750AFF750B08
:201C0000FF750CFF750D00780A120D4B7F0402101E74F5120F728C828D83780A120D5E8A81
:201C2000828B83780A120D11EA2404F8EB3400F98C828D83A3A3A3A3E0FCA3E0FD888289A7
:201C400083C3E09CF0A3E09DF088828983C3E09420A3E0944E40268A828B83750AFF750B72
:201C6000FF750CFF750DFF780A120CEA8A828B83A3A3A3A3E02420F0A3E0344EF0021BF717
:201C800074F5120F72E9FE9004FDE0FAA3E0FBEEC333F8E433F9743128F58274B139F58372
:201CA000E02AF50AA3E03BF50B780A1210627A407B427C0F7D00121AF87402120EBC8A0ACE
:201CC0008B0B8C0C8D0D7410780A120C8CAA0AAB0B7F0402101E74F1120F728A0E8B0F8CB9
:201CE000108D11740F120EF2E0FAA3E0FB7411120EF2E0F50AA3E0F50B780A121062EA243C
:201D000001F50AEB3400F50BE4F50CF50D780E790A120C0C750A71750B02780E790A120CF1
:201D20000CAA0EAB0FAC10AD11121AF87402120EBC8B0BEA450B60047A0180027A00EC2A74
:201D4000FCED3400FD7413120EF2E0F8A3E0F9E8FEE9FFECF8EDF97A717B02120E1B880AAF
:201D6000890B8E828F83780A120D6DECF8EDF97A717B02120E1B8A0A8B0B7405780A120EED
:201D8000938E828F83A3A3A3A3E50AF0A3E50BF07F0802101EC082C083E9906000F0D08348
:201DA000D08222C2AF02000022C0E0C0D0E8C0E0E9C0E0E5A8D2AFC2C7A2E7A2E792AFD01F
:201DC000E0F9D0E0F8D0D0D0E032120B76473F00120B76BE3F00120B76F8FF05120B76FD38
:201DE000FF05120B7670D507120B7687D507120B76B8D507120B76F3D507120B761DD607F4
:201E0000120B7647D607120B765ED607120B7675D607120B768CD607120B76B5D607120B1A
:201E200076C8D607120B76DED607120B76F1D607120B762E8B07120B76328C07120B766A30
:201E40008C07120B768D8C07120B76988C07120B76BB8C07120B76CA8D07120B769F8E07E5
:201E6000120B761A8F07120B76A28F07120B76DD8F07120B76149007120B76A29007120B27
:201E8000767B9107120B76DB9107120B76E69107120B76659207120B76689207120B766B7F
:201EA0009207120B76FA9207120B76FD9207120B762D9307120B76579307120B76459407E9
:201EC000120B76F79407120B769AB207120B76C2B207120B76F0B207120B7627B307120B1C
:201EE0007685B307120B76D0B307120B761BB407120B765BB407120B76A1B407120B76CFAD
:201F0000B407120B768CB507120B7696B507120B76A3B507120B76D6B507120B76A2B6073D
:201F2000120B76AEB607120B76C6B607120B76D0B607120B76B7DD07120B76CFDD07120BDC
:201F400076E7DD07120B764EE006120B762AE106120B768EE206120B76E5E206120B766673
:201F6000E306120B7656E406120B76A3E406120B7629E506120B765BE506120B766FE70616
:201F8000120B76B1E706120B76CFE706120B7652E806120B7626E906120B76EEE906120BB9
:201FA00076689507120B763B9607120B76E49607120B76379707120B76E79707120B7673A2
:201FC0009807120B765F9907120B768E9907120B76A19A07120B76E99A07120B76BE9B072A
:201FE000120B76FA9B07120B76169C07120B76E4BF07120B760AC007120B7626C107120B27
:202000007630C107120B7665C207120B765DC307120B7687A807120B76B7A907120B76EA97
:20202000A907120B7634AA07120B76FBAB07120B76659006120B76CF9006120B762E920659
:20204000120B763E9206120B766B9206120B76C79206120B76CE9306120B76989406120BB3
:2020600076F89506120B76419606120B768E9606120B76B49606120B76C29806120B76C7FA
:202080009806120B76CC9A06120B76199B06120B768C9B06120B76BF9B06120B76619C060D
:2020A000120B760A9D06120B76429D06120B76459D06120B768D9D06120B76CD9D06120B0A
:2020C0007658CC07120B7670CC07120B76B8CC07120B76CECC07120B7615CD07120B7629FF
:2020E000CE07120B76B6CE07120B760EB205120B7649B205120B768EB205120B764EB30591
:20210000120B76D4B305120B7639B405120B7665B405120B769EB405120B76DCB605120B39
:2021200076C0B805120B76A6BA05120B76E9BB05120B7637BE05120B7649BF05120B769424
:20214000C005120B76A4C105120B76C1C105120B76FCC105120B761EC205120B7681C205FB
:20216000120B7642C705120B76D7C705120B7629C805120B7647C805120B76A1C805120B3A
:2021800076A0C905120B7624CA05120B76AEAD07120B76B8AD07120B76FBAD07120B7616F6
:2021A000AE07120B76A6AE07120B76CEAE07120B760BAF07120B7642AF07120B766BAF07D3
:2021C000120B76E0AF07120B76F5AF07120B760AB007120B764BB007120B7685B007120BC3
:2021E00076B1B007120B76DFB007120B762AB107120B76D4B107120B761DB207120B764701
:20220000B207120B7672B207120B76CAFE06120B7630C706120B767EC806120B765EC906B7
:20222000120B767DC906120B76FAC906120B763DCA06120B7693CB06120B7654CC06120BF6
:2022400076DBCE06120B767CCF06120B7672D006120B766FD106120B76C9D206120B7654A6
:20226000D306120B765ADA07120B76C3DA07120B7617DB07120B763EDB07120B766FDB075D
:20228000120B7657B707120B76C4B707120B760BB807120B7623B907120B761FBA07120B1E
:2022A0007602BB07120B76DFF605120B7621F705120B76F3F705120B76CCF805120B76C690
:2022C000F905120B76A8FA05120B7611FB05120B76C7FB05120B763BFC05120B76A7FC05BE
:2022E000120B76D0FC05120B764AFD05120B76E3FD05120B7648FE05120B765DFE05120B35
:2023000076A3FE05120B76BCFE05120B7621FF05120B7624FF05120B7685C907120B76ADB4
:20232000C907120B76EBC907120B76A9CA07120B7610CB07120B762CCB07120B7654CB07B3
:20234000120B7684CB07120B7693CB07120B7610CC07120B76008006120B76DE8106120BF8
:2023600076108406120B764C8406120B76798406120B76638506120B76AE8506120B76F975
:202380008506120B762E8606120B767C8606120B76AB8606120B76CE8606120B761B8706D8
:2023A000120B76A08706120B76BA8906120B76F98B06120B763A8C06120B76DC8D06120BE6
:2023C000761D8E06120B76908E06120B76DC8E06120B768A8F06120B7616BA06120B76145A
:2023E000BB06120B76ADC106120B76CEC306120B7699C506120B7601C706120B768BCA05A6
:20240000120B763ACB05120B7680CB05120B76B6CC05120B7613CD05120B7641CD05120BE7
:2024200076D7CE05120B7651CF05120B76CCCF05120B7626D105120B7686D205120B768CF3
:20244000D305120B76EDD405120B7606D505120B7664D505120B7652D605120B7685D60554
:20246000120B76F5D605120B766FD705120B76B9D705120B7683D805120B7658D905120B1A
:202480007637DA05120B76C2DA05120B7630DB05120B76A4DB05120B76CFDB05120B768E5F
:2024A000DC05120B76F3DD05120B7610DE05120B762FDE05120B7620DF05120B7645DF0555
:2024C000120B766FDF05120B76EADF05120B7644E005120B76ADE105120B765BE205120BE1
:2024E000769CE205120B76BA9E06120B76089F06120B76149F06120B76F29F06120B762386
:20250000A006120B7654A006120B76D4A006120B760CA106120B765EA106120B769BA106C8
:20252000120B76B8A306120B76DEA506120B76C9A706120B76B3A906120B76FAFF06120BDE
:2025400076CCE205120B76FCE205120B76D5E905120B765AEB05120B7657F105120B763FF7
:20256000F205120B767CF205120B769FF205120B76D0F205120B76D9F205120B76E3F2050B
:20258000120B76D1F305120B76C7F405120B76382A00120B76372E00120B763D2E00120B84
:2025A00076783500120B76913A00120B7667C307120B7661C407120B76D5C407120B76133E
:2025C000C507120B7687C507120B7600C607120B7609C607120B7615C607120B762AC60781
:2025E000120B7668C607120B767EC607120B76AEC607120B76BBC607120B76D5C607120BBA
:202600007614C707120B7652C707120B76B7C707120B76CCC707120B76D7C707120B76E4BB
:20262000C707120B76FBC707120B7609C807120B7614C807120B7620C807120B762FC8077C
:20264000120B763AC807120B7657C807120B7667C807120B767DC807120B7699C807120B65
:2026600076A4C807120B76B9C807120B76CDC807120B762EC907120B7634C907120B763A32
:20268000C907120B7640C907120B7652C907120B7693AC06120B761FAD06120B767EAE0610
:2026A000120B769FB006120B768BB106120B76C0B106120B76E2B106120B7691B206120B2E
:2026C0007689B406120B76B2B406120B7644B506120B7676B506120B7683B506120B76DAAE
:2026E000B506120B7600B606120B766DB806120B7670B906120B76C8B906120B7630EC0681
:20270000120B763AEC06120B765CEC06120B7668EC06120B7601EE06120B7630EE06120BD0
:20272000764CEF06120B76A5EF06120B7619F106120B7686F106120B76C1F106120B760024
:20274000F206120B76B9F406120B76D3F406120B765FF506120B766DF506120B76C6F5069F
:20276000120B76D4F506120B7647F606120B76ABF606120B76F5F606120B76008007120B2C
:2027800076228007120B76488207120B765D8507120B76758607120B76288707120B760ABF
:2027A0008807120B7618D707120B763DD707120B76AFD707120B767EF706120B7687F7060E
:2027C000120B7690F706120B7667F806120B7618FA06120B764EFA06120B7688FA06120B1D
:2027E00076BEFA06120B76F8FA06120B762CFB06120B7658FB06120B76A1FB06120B76DBCB
:20280000FB06120B7624FC06120B767CFC06120B76B1FC06120B760CFD06120B7646FD0629
:20282000120B7697FD06120B76CDFD06120B7607FE06120B762AFE06120B7685DF07120B8E
:20284000768FDF07120B769FDF07120B761AA307120B7624A307120B7662A307120B76ABE0
:20286000A307120B76E5A307120B763BA407120B765CA407120B7665A407120B76B0A407E8
:20288000120B76D9A407120B76E3A407120B764FA507120B76E5A507120B762FA607120BC2
:2028A000765FA607120B76E8A607120B7628A707120B7660A707120B7672A707120B768E90
:2028C000A707120B7697A707120B765DA807120B7680DE07120B76B9DC07120B7681D307BE
:2028E000120B76B7D307120B76EDD307120B7636D507120B76C4BB07120B76D9BB07120B51
:20290000768CBC07120B76CCBC07120B76E5BC07120B7619BD07120B7666BD07120B769A3B
:20292000BD07120B76DCBD07120B761EDF07120B7630DF07120B76E0CE07120B7605CF07AA
:20294000120B76D7DE07120B76E3FF06120B76EEFF06120B76C7DF07120B7648FF05120BEB
:202960007658FF05120B7661FF05120B76A5FF05120B76B5DB07120B763ADC07120B76A044
:20298000DC07120B768B9C07120B76C89C07120B76E49C07120B76AC9D07120B76919E07CF
:2029A000120B76F09F07120B765CA007120B7642A107120B76C9A107120B76D6A207120BA8
:2029C00076BDD807120B760DD907120B7696D907120B76FCD907120B7644D107120B766E3D
:2029E000D107120B7634D207120B760FD307120B76D5D306120B7677D706120B76D1D7067A
:202A0000120B76F0D706120B764DD806120B76BBD906120B76A6DA06120B76D4DE06120BEA
:202A2000769EDF06120B7659DF07120B76A9DF07FFFFFFFFFFFFFFFF74F4120F0690780317
:202A4000E06442705590054AE014F0704DC2AF122A5200782AD0E0F618D0E0F6E59F5407C7
:202A60007005750BFF8003750B7FC4C0E07829E6F50A08E6550BF50B740B780A120E84D033
:202A8000E0250AF8906270E0A2E740F8E8C333906272F0906270E0D2E0F09003D6E0F47069
:202AA00003022E32E0F875F003A4C8AAF02AF974D828FE740339FFEE2401F582EF3401F584
:202AC00083E0F8A3E0F9E849601EEE2401F582EF3401F583E0FAA3E0FBEE2400F582EF3446
:202AE00001F583E0F91228A48E828F83A3A3A3A3A3A3A3E0F8A3E0F98E828F83A3A3A3A30D
:202B0000A3E8F0A3E9F0906054E09003AFF0906055E09003B0F0906056E09003B1F09060C6
:202B200057E09003B2F0906058E09003B3F0906059E09003B4F090605AE09003B5F0906019
:202B40005BE09003B6F090605CE0FC9003B7F090605DE0FB9003B8F090605EE0FD9003B9C5
:202B6000F090605FE0FA9003BAF09003B5E08C0A250AF8E43400F98D0AE8250AF8E9340046
:202B8000F98B0AE8250AF8E93400F98A0AE8250AFAE93400FBEE24F6F582EF3400F583E0CB
:202BA0002AF0A3E03BF08C0AEE24F8F582EF3400F583E0250AF0A3E03400F0EE24FAF58272
:202BC000EF3400F583E02401F0A3E03400F0EE24FEF582EF3400F583E0F8A3E0F9E84960B7
:202BE00042906000E0C333FCE433FDE82CF582E93DF583E02AF0A3E03BF0906000E0FA9092
:202C000003B7E0FCEAC333FAE433FBE82AF8E93BF9E8244AF582E93400F583E02CF0A3E02A
:202C20003400F09003B5E070119003B8E0700BA3E07007A3E07003022D2F8E828F83A3A36B
:202C4000A3A3A3E0F8A3E0F9EE240DF582EF3400F583E028F8A3E039F9EE240BF582EF349A
:202C600000F583E8F0A3E9F0EE240FF582EF3400F583E4F0EE241CF582EF3400F583E064FD
:202C800001701EEE2420F582EF3400F583E0F8A3E0F9EE241DF582EF3400F583E8F0A3E968
:202CA000F09003B0E06052EE241CF582EF3400F5837401F0EE2469F582EF3400F583E070CD
:202CC00038EE2473F582EF3400F583E0702BEE247FF582EF3400F583E0701EEE2420F582F0
:202CE000EF3400F583E0F8A3E0F9EE241DF582EF3400F583E8F0A3E9F0906062E0700302A9
:202D00002DE28E828F83E0F8A3E0F9E82406FCE93400FDE82402FAE93400FB1225DA8E82C5
:202D20008F83E0F8A3E0C82412F582E8022DE89003B7E0603AEE240FF582EF3400F583E4D7
:202D4000F0EE241CF582EF3400F583E064017040EE2420F582EF3400F583E0F8A3E0F9EEC8
:202D6000241DF582EF3400F583E8F0A3E98020EE24FCF582EF3400F583E02401F0A3E03430
:202D800000F0EE241DF582EF3400F583E4F0A3F0EE240BF582EF3400F583E0F8A3E0F98E8A
:202DA000828F83A3A3A3A3A3E0687003A3E0696003022CA1EE240FF582EF3400F583E06004
:202DC000128E828F83A3A3A3A3A3E064057002A3E0600479088002793EEEFAEFFB1224B478
:202DE0008050EE241DF582EF3400F583E4F0A3F09061C8E06006121505E970F48E828F83C1
:202E0000A3A3A3E0602C9061C8E070069060607480F0EEFAEFFB1225A4E964016014790230
:202E2000EEFAEFFB1216B2122598E9640160031225447F04020FD853BFEF020B7374EC128C
:202E40000F069003D6E0F875F003A4C8AAF02AF974D828FE740339FF9061D0E07013EE2434
:202E600063F582EF3400F583E0F8A3E0F9E849600FEE241DF582EF3400F583E4F0A380535E
:202E8000EE2469F582EF3400F583E07047EE2473F582EF3400F583E0703AEE247FF582EFF6
:202EA0003400F583E0702DEE241CF582EF3400F583E06401701EEE2420F582EF3400F58392
:202EC000E0F8A3E0F9EE241DF582EF3400F583E8F0A3E9F08E828F83A3A3A3A3A3E0F8A33D
:202EE000E0F9EE241DF582EF3400F583E028F8A3E039F9E8240108E93400F9EE2407F50CBE
:202F0000EF3400F50D850C82F583E8F0A3E9F0EE240BF582EF3400F583C3E098A3E09950D7
:202F2000358E828F83A3A3A3A3A3A3A3C082C083EE240BF582EF3400F583E0F8A3E0F9D0ED
:202F400083D082E0C398F8A3E099F9C3E894AAE994105035803BEE240BF582EF3400F5836F
:202F6000C082C0838E828F83A3A3A3A3A3A3A3E0F8A3E0F9D083D082E0C398F8A3E099F9F4
:202F8000C3E894ABE9941050089004EDE064017030EE241DF582EF3400F583E4F0A3F08EC6
:202FA000828F83A3A3A3A3A3E02401F8A3E03400F98E828F83A3A3A3A3A3A3A3E8F0A3E9A6
:202FC000F0EE2473F582EF3400F583E064016003023238EE2474F582EF3400F58312107923
:202FE0008E828F83A3A3A3A3A3A3A3E0FCA3E0FD8E828F83A3A3A3A3A3E0FAA3E0FB12140F
:20300000BE7402120EBCE97003023238EE2474F8EF3400F9880A890B8882F583E0F8A3E03B
:20302000F9850C82850D83E8F0A3E9F0EE2476FCEF3400FDEEFAEFFB1224C0EE247BF582AB
:20304000EF3400F583E0F8A3E0F9EE2420F582EF3400F583E8F0A3E9F0EE241CF582EF3421
:2030600000F583E4F0EE241DF582EF3400F583E4F0A3F0EE240FF582EF3400F5837401F0C4
:20308000850C82850D83E0F8A3E0F9EE240DF582EF3400F583E028F8A3E039F9EE240BF5BC
:2030A00082EF3400F583E8F0A3E9F08E828F83A3A3A3A3A3E0FCA3E0FD850A82850B83E0EE
:2030C000FAA3E0FB1214FD8A0A8B0BEE242EF582EF3400F583E0FAA3E0FBE4F50CF50D8A10
:2030E0000E8B0FF510F511780A790E120C0CEE2477F582EF3400F583E0F50EA3E0F50F786D
:203100000A790E120CC4EE2479F582EF3400F583E06A7003A3E06B7044EE247DF582EF3417
:2031200000F583E0F8A3E0F9EE2432F582EF3400F583E0687003A3E0697022EE247BF58230
:20314000EF3400F583E0F8A3E0F9EE2430F582EF3400F583E0687003A3E0696052EE247D44
:20316000F582EF3400F583E0F50EA3E0F50F7404780E120E84780E121062EE247BF582EF34
:203180003400F583121079EE2479F582EF3400F583E0FCA3E0C313FDEC13FC8E828F83A359
:2031A000A3A3A3E0FA7B001222447404120EBCEE2476F582EF3400F583E0C0E0EE242BF5B9
:2031C00082EF3400F583D0E0F0EE2479F582EF3400F583E0F8A3E0F9EE242EF582EF340067
:2031E000F583E8F0A3E9F0EE247BF582EF3400F583E0F8A3E0F9EE2430F582EF3400F583BC
:20320000E8F0A3E9F0EE247DF582EF3400F583E0F8A3E0F9EE2432F582EF3400F583E8F037
:20322000A3E9F0EEFAEFFB1224C6EE2473F582EF3400F583E4F08016EE242EF582EF340069
:20324000F583E0F50AA3E0F50BE4F50CF50DEE2418F582EF3400F583780A120B8B701EEECB
:20326000241FF582EF3400F583E0F8EE241DF582EF3400F583E0687002A3E06039EE2412E6
:20328000F50EEF3400F50F780E121062EE2410F582EF3400F583121079EE241DF582EF3462
:2032A00000F583121079AA0AAB0BAC0CAD0D121CD67406120EBCEE2418F582EF3400F58389
:2032C000780A120D6DEE241DF582EF3400F583E0C0E0EE241FF582EF3400F583D0E0F0EE4E
:2032E0002412FCEF3400FD8E828F83E02402FAA3E03400FB121C11906062E060147C707D5A
:20330000B18E828F83E02402FAA3E03400FB121C118E828F83E0F8A3E0F988828983A3A317
:20332000E82408FCE93400FD7406120DB98E828F83E02402F8A3E03400F9E8FAE9FBEE2469
:203340001DF582EF3400F583E0F512A3E0F513E4F514F515750E01F50FF510F5117812793F
:203360000E120CC47812790A120C0C8A828B837812120CEA8A828B83750EFF750FFF7510D6
:20338000FF780E120D4B9004E7E0640160030234C5790112261C8E828F83E0FAA3E0FB7563
:2033A0000AFF750BFF750CFF750DFFEA240EF582EB3400F583780A120D6DEA2412F8EB3415
:2033C00000F9E8FAE9FBEE2412F582EF3400F583780A120D5EE50A75F0E2A4C50AA8F07543
:2033E000F004A428F875F0E2E50BA428F50B8A828B83E0250AF0A3E0350BF0EE2416F582A7
:20340000EF3400F583E0F50AA3E0F50B7404780A120E84E50A2401F8E50B3400F98A828B51
:2034200083E028F0A3E039F0906062E08E828F837003023539E0F8A3E0C82412F582E83442
:2034400000F583E02410F0A3E03401F0EE240FF582EF3400F583E06032EE242BF582EF34CC
:2034600000F583E0F875F071A4C8AAF075F002A42AF98E828F83E0FAA3E0CA2412F582EA12
:203480003400F583E028F0A3E039F08E828F83E0F8A3E0C82414F582E83400F5837410F0E0
:2034A0008E828F83E0F8A3E0C82416F582E83400F5837448F0A37424F0EEFAEFFB12133E76
:2034C0007900023A8C750E50750F00751000780E790A120BB94003023396EE241DF582EF4D
:2034E0003400F583E0F8A3E0F9E8496003023396780A12105EEEFAEFFB1224CC7404120EFF
:20350000BCE964016003023396EE240FF582EF3400F583E060128E828F83A3A3A3A3A3E0BD
:2035200064057002A3E0600479088002793EEEFAEFFB1224B479018089E0F8A3E0C8241277
:20354000F582E83400F583E02410F8A3E034FFF97A717B02120E1B880A890BEE242EF58225
:20356000EF3400F583E0F8A3E0F9C3E50A98E50B99500302344C80B074EC120F06EAFEEB2A
:20358000FF8C828D83E0F8A385820A85830B603B147003023760147003023A551470030213
:2035A00037DC24FD70030238F5147003023A8C14700302394C24FE70030238FA1470030286
:2035C000393C1470030239D8023A7BEE2476F512EF3400F513E0851282851383F0850A8256
:2035E000850B83A385820A85830BEE2477F510EF3400F5117902AC0AAD0BAA10FB1224DE88
:203600008A0A8B0BEE2479F50EEF3400F50F7902AC0AAD0BAA0EFB1224DE8A0A8B0B790276
:20362000AC0AAD0BEE247BFAEF3400FB1224DE8A0A8B0BEE247DF50CEF3400F50D7902AC5D
:203640000AAD0BAA0CFB1224DE8A0A8B0B851282851383E0C333F0851082851183E0F8A314
:20366000E0F9E8C333F8E933F9851082851183E8F0A3E9F0850E82850F83E0F8A3E0F9E89A
:20368000C333F8E933F9850E82850F83E8F0A3E9F0850C82850D83E0F50EA3E0F50F74049D
:2036A000780E120E93850C82850D83E50EF0A3E50FF0EE2474F50CEF3400F50D7902AC0A62
:2036C000AD0BAA0CFB1224DE850C82850D83C082C0838E828F83A3A3A3A3A3E0F8A3E0F91B
:2036E000D083D082E0C398F8A3E099F9C3E894FFE9947F40030237B6EE247DF582EF340048
:20370000F583E0F50AA3E0F50BE4F50CF50DEE247BF582EF3400F583E02401F50EA3E0348A
:2037200000F50FE4F510F511EE2479F582EF3400F583E0F8A3E0F9E8C333F8E933F9881220
:203740008913E4F514F515780E7912120C0C780A790E120BB94004793B805DEE2473806280
:20376000EE2480F50CEF3400F50D7402C0E07905AC0AAD0B7AE27B041224DEEAFCEBFDD002
:20378000E0F9AA0CAB0D1224DE850C82850D83C082C0838E828F83A3A3A3A3A3E0F8A3E075
:2037A000F9D083D082E0C398F8A3E099F9C3E894FFE9947F40097928EEFAEFFB023A76EE8D
:2037C000247FF582EF3400F5837401F0EE241DF582EF3400F583E4F0A3023948EE24E1F5AC
:2037E00082EF3400F583E07039EEF8EFF97ABB7B038A828B83A3E0C0E0E824E2F582E934E3
:2038000000F583D0E0F08A828B83A3AA82AB8388828983A3A882A983EA64C37003EB640394
:2038200070CFEE24E2F582EF3400F583E0A2E0EE401124DDF582EF3400F583741AF0790D8B
:20384000023A4F2462F582EF3400F583E4F0EE2467F582EF3400F583E4F0EE24E0F582EFBA
:203860003400F5837401F07908AC0AAD0BEE249BFAEF3400FB1224DE8A0A8B0B7902AC0A14
:20388000AD0BEE24A3FAEF3400FB1224DE8A0A8B0BEE2493F50CEF3400F50D7908AC0AADB6
:2038A0000BAA0CFB1224DE8A0A8B0B7908AA0CAB0D1224E4EE2487F50CEF3400F50D7904C9
:2038C000AC0AAD0BAA0CFB1224DE7904AA0CAB0D1224E4EE248BFAEF3400FB1224F6EE24BD
:2038E00083FAEF3400FB1224FC9003AAE04480F07904023A4FEE24DE8045EE2462F582EF93
:203900003400F583E4F0EE2467F582EF3400F583E4F0EE24D2F582EF3400F583E4F0EE24EC
:20392000DCF582EF3400F5837401F0EE24D3F582EF3400F583E4F0790B023A89EE24DFF53A
:2039400082EF3400F5837401F0023A8CEEF8EFF97ABB7B038A828B83A3E0C0E0E824E2F57C
:2039600082E93400F583D0E0F08A828B83A3AA82AB8388828983A3A882A983EA64C37003E6
:20398000EB640370CFEEF8EFF97ABB7B038A828B83A3E0FC850A82850B83E05CC0E0E82470
:2039A000E2F582E93400F583D0E0F0850A82850B83A385820A85830B8A828B83A3AA82ABFA
:2039C0008388828983A3A882A983EA64C37003EB640370B979098077EE24EAF582EF340047
:2039E000F583E064017003023A7B850A82850B83E0C0E0EE24EDF582EF3400F583D0E0F08B
:203A0000850A82850B83A385820A85830B7402C0E0F9AC0AAD0BEE24EEFAEF3400FB1224F0
:203A2000DEEAFCEBFDD0E0F9EE24F0FAEF3400FB1224DEEE24EAF582EF3400F5837401F090
:203A4000EE24ECF582EF3400F583E0703F790CEEFAEFFB8034EE24F4F8EF3400F9E08882B8
:203A60008983F0EE24F3F582EF3400F5837401F088828983E0F91224B48011EE24F5F582E6
:203A8000EF3400F583E8F079071224847F0C020FD874F6120F06EAFEEBFF023CD7EEFAEFB6
:203AA000FB122478023F23EE2469F582EF3400F583E06401703E9003B2E07003023DB3EE01
:203AC000FAEFFB12248AEE24A3F50AEF3400F50B780A121062EE249BFCEF3400FD8E828FFD
:203AE00083A3A3A3A3E0FA7B001222507402120EBC023CD7EEFAEFFB12244E023F23EE24AB
:203B000069F582EF3400F583E0640170559003B2E06031EE2482F582EF3400F5837401F05F
:203B2000EE24D4F582EF3400F583E4F0A3F0A3F0A3F0EE24D8F582EF3400F583E4F0A3F09D
:203B4000A3F0A3F0EE24DEF582EF3400F583E064016003023DB37906EEFAEFFB122490028A
:203B60003CD7EE24D2F582EF3400F583E06401702AEEFAEFFB122454E964016003023F40CF
:203B8000EE24DEF582EF3400F583E4F0EE2469F582EF3400F5837401023F2EEE24D3F58282
:203BA000EF3400F583E07003023F40EE24B2F50AEF3400F50B780A121062EE248BFCEF34EE
:203BC00000FDEE24C2FAEF3400FB1225027402120EBCEE24D2F582EF3400F5837401023CC8
:203BE0009FEE2469F582EF3400F583E064016003023CA29003B2E07003023DB3EE2420F560
:203C000082EF3400F583E0F8A3E0F9EE241DF582EF3400F583E8F0A3E9F0EEFAEFFB122496
:203C20008AEE2462F582EF3400F5837401F0EE2467F582EF3400F5837401F0EE24DCF582BA
:203C4000EF3400F583E06401701379008E828F83A3A3A3A3E0FA7B0012225C80137C01796C
:203C6000008E828F83A3A3A3A3E0FA7B00122256EE24DCF582EF3400F583E4F0EE24E0F5FC
:203C800082EF3400F583E4F0EE24DFF582EF3400F583E4F0EE24DEF582EF3400F583E4F086
:203CA0008035EEFAEFFB12245A023F23EE2469F582EF3400F583E064016003023D42EE24C1
:203CC000DFF582EF3400F583E064016003023DB3EEFAEFFB12248AEE246EF582EF3400F5B8
:203CE00083E07003023F40EE246AF582EF3400F583E024FE602F24FE7003023AA71470034F
:203D0000023AFE147003023BE1147003023F3124FE7003023DE524FE6092147003023E3205
:203D200014604C80B2EE2469F582EF3400F583E064016003023A9D9003B1E06076791602F8
:203D40003F04EEFAEFFB122460E964016003023F40EE24DFF582EF3400F583E4F0EE24821B
:203D6000F582EF3400F583E4F0EE2469023BD5EE2469F582EF3400F583E06401705D90039E
:203D8000B2E06026EE2482F582EF3400F583E4F0EE2462F582EF3400F5837401F0EE24672D
:203DA000F582EF3400F5837401F09003B1E06003023CD0EE2471F8EF3400F988828983E06A
:203DC00024FFF0A3E034FFF088828983E0F8A3E0F9E8496003023F40023F02EEFAEFFB1284
:203DE0002466023F23EE2469F582EF3400F583E0640170349003B2E060B9EE24E1F582EFC8
:203E00003400F5837401F0EE2420F582EF3400F583E0F8A3E0F9EE241DF582EF3400F583B8
:203E2000E8F0A3E9F0023CD0EEFAEFFB12246C023F23EE2469F582EF3400F583E064016016
:203E400003023F0FEE24EAF582EF3400F583E064017051EE24EBF582EF3400F583E06401A7
:203E60006003023CD0EE24F0F582EF3400F583121079EE24EEF582EF3400F583121079EE87
:203E800024EDF582EF3400F583E0FC8E828F83A3A3A3A3E0FA7B00790012224A7404120E91
:203EA000BC023CD0EE2471F8EF3400F988828983E024FFF0A3E034FFF088828983E0F8A361
:203EC000E0F9E849707AEE24F0F582EF3400F583121079EE24EEF582EF3400F58312107992
:203EE000EE24EDF582EF3400F583E0FC8E828F83A3A3A3A3E0FA7B00792212224A7404122F
:203F00000EBC7922EEFAEFFB1224B479018033EE24ECF582EF3400F5837401F0EEFAEFFB0C
:203F2000122472EE2469F582EF3400F583E9F0800FEEFAEFFB12247EE964017003023CD08F
:203F400079007F02020FD874F7120F06E9900280F090B1B21210757C8F7DB0791F7A077BAB
:203F6000031229EE7404120EBC7CA07D007A067B00121EC67CA07D007A077B00121EC67C30
:203F8000A07D007A087B00121EC67CA07D007A097B00121EC690B1CA120D7C12201690B155
:203FA000CA120D7C1221061229821229347A017B00900280E0F91228A47F01020FD874F6A5
:203FC000120F06EAFEEBFF54806016900280E0F912288CEA4B600312287AEEFAEF64808066
:203FE00011EEA2E0500F7A817B021229F4EE6401FAEFFB80047A007B007F02020FD8FFFF22
:20400000EE40FFFF0500009442424242FFFFFFFFFFFFFFFFFFFFFFFFFFFFFFFFFFFFFFFFE7
:20402000000102030405060708090A0BFFFFFFFF0243D50256EBFFFFFFFFFFFFFFFFFFFFEF
:20404000FFFFFFFFFFFFFFFFFFFFFF025ED0FFFFFFFFFFFFFFFFFFFFFFFFFF025E48FFFFA2
:20406000FFFFFF024F58FFFFFFFFFF025E6CFFFFFFFFFF025E1FFFFFFFFFFFFFFFFFFFFF63
:20408000FFFFFF02575EFFFFFFFFFFFFFFFFFFFFFFFFFFFFFFFFFFFFFFFFFF024E58FFFFDB
:2040A000FFFFFF025F2CFFFFFFFFFF024EDDFFFFFFFFFF02555701026687010000598702D2
:2040C0006A87010000918710CD850300008802028C870300008102026A870100009287102F
:2040E0008D8503000000000266870100005687026A87010000938710ED850200000000024A
:204100008C87030000B086026C870100000000026A87010000938710BD850200009B8602D8
:204120008C87030000B086026C870100009B8600009C5F905F009001000000FE816082BB85
:20414000820D842281138300806D86A2836484828692815E83000003000001000000000093
:2041600000000030C461D061FF0000B4000028002800283075A000A000A000A00000080061
:2041800008E001F00010001000100010001000100050005000500010001000D007000000FF
:2041A0000000000F0001000500307507001000010081FF00000000FFE4620263EA62FF02B6
:2041C000020208025000A0000000E8030266870100005087026A87010000730D02708701C1
:2041E00000003604026A87010000740D0272870100004C04026A87010000750D0274870150
:2042000000004E04026A87010000760D0276870800004F04026A87010000770D0278870101
:204220000000780DFF0100FF200266870100004D87026A87010000DC0D027A870000000036
:2042400000028C870300009C04EA68EA68EA68EA68EA68EA68EA68EA68EA68EA68EA68EA36
:2042600068EA68A86BC06BA26BFF020202020202020202010D000000100102668701000019
:204280004A87026A870100001E0E0284870100003109026A870100001F0E028287010000B8
:2042A0008A87026A87010000200E028E870100008887026A87010000210E02808701000077
:2042C0001E85026A87010000220E027E870100006E87026A87010000230E027C87010000EF
:2042E000FD85026A87010000240E026087010000C784026A87010000250E025E87010000D2
:204300002A86026A87010000260E025C87010000270EFF0008010100030201060000000095
:20432000000000000000000000000000000000000000000000000000FFFF0110002000E866
:2043400003E5C754F84405F5C779012200000080FB124341B900030243BFE479217815B82D
:2043600000028004F709D8FCE479367802B800028004F709D8FCE490028078EC790A800265
:20438000F0A3D8FCD9FA781C9040B67A01BA00028007E493A3F608DAF97A6B7B0C9040B72D
:2043A000788B79038015E493A3AD82AE838A828B83F0A3AA82AB838D828E83D8E9D9E77552
:2043C00082227583C974041243E775824C75834374001243E775D00075813F751A80751B7D
:2043E00002759F00024351C09FF59FE473D09F22D083D082C09FE493C0E0740193C0E074FF
:204400000293F59F22E066701008A3E066700A08A3E066700408A3E06622E4936670130840
:2044200074019366700C08740293667005087403936622C3E7960809E7960809E79608099F
:20444000E796A2D265D03322C3E09608A3E09608A3E09608A3E096A2D265D03322C00AC3BA
:20446000E096F50A08A3E096420A08A3E096420A08A3E096420AA2D265D033E50A7001D371
:20448000D00A22C3E7960809E7960809E7960809E79622C3E09608A3E09608A3E09608A3EE
:2044A000E09622C00AC3E096F50A08A3E096420A08A3E096420A08A3E096450A7001D3D004
:2044C0000A22C3E4939608740193960874029396087403939622080808EAC0E0EBC0E08616
:2044E000F0E7A4FA180986F0E7A42AFA180986F0E7A42AFA180986F0E7A42AFA1986F0E7FF
:20450000A4FBE5F02AFA190886F0E7A42BFBE5F03AFA190886F0E7A42BFBE5F03AFA181831
:204520000986F0E7A4C5F02BFBE43AFA1908E7C5F0C6A426F6E5F03BFBE43AFA1886F0E7A3
:20454000A4F6E5F00826F6E43B08F6E43A08F6D0E0FBD0E0FA22E4CFC0E0E4CEC0E0E4CDC2
:20456000C0E0E4CCC0E075F020E626F608E633F608E633F608E633F6181818EC33FCED33FC
:20458000FDEE33FEEF33FFC3EC9709ED9709EE9709EF97191919400FFFEC97FC09ED97FD4C
:2045A00009EE97FE191906D5F0BFECF709EDF709EEF709EFF7191919D0E0FCD0E0FDD0E0B2
:2045C000FED0E0FF2212462D18181812455612461C1919192212461C191919080808E618DC
:2045E000181820E7E012455612462D18181822090909E719191920E7DC080808E618181892
:2046000020E70302455612462D18181812455612462D18181812461C19191922E4C397F796
:2046200009E497F709E497F709E497F722E4C396F608E496F608E496F608E496F6226017B3
:20464000080808C6A2E713C618C613C618C613C618C613C6D5E0E9226016080808C6C3130B
:20466000C618C613C618C613C618C613C6D5E0EA227009080808226016181818C6C333C69B
:2046800008C633C608C633C608C633C6D5E0EA22E627F60809E637F60809E637F60809E6C2
:2046A00037F622E026F608A3E036F608A3E036F608A3E036F622E026F008A3E036F008A316
:2046C000E036F008A3E036F022C3E697F60809E697F60809E697F60809E697F622C3E096E4
:2046E000F008A3E096F008A3E096F008A3E096F022E657F60809E657F60809E657F60809A9
:20470000E657F622E056F608A3E056F608A3E056F608A3E056F622E056F008A3E056F00872
:20472000A3E056F008A3E056F022E647F60809E647F60809E647F60809E647F622E046F0C6
:2047400008A3E046F008A3E046F008A3E046F022E066F008A3E066F008A3E066F008A3E071
:2047600066F022E0F608A3E0F608A3E0F608A3E0F622E6F008A3E6F008A3E6F008A3E6F0ED
:2047800022E0FAA3E0FBA3E0FCA3E0FD22EAF0A3EBF0A3ECF0A3EDF022E0FCA3E0FDA3E026
:2047A000FEA3E0FF22ECF0A3EDF0A3EEF0A3EFF022E0F8A3E0F9A3E0FAA3E0FB22E8F0A3EA
:2047C000E9F0A3EAF0A3EBF022CAC0E0E6F0A308DAFAD0E0FA22CAC0E0E0A3C582CCC58211
:2047E000C583CDC583F0A3C582CCC582C583CDC583DAE6D0E0CA22C3E498F8E499F91248AF
:20480000388026C3E49AFAE49BFBE920E7E9124838E498F8E499F922C3E498F8E499F912CF
:204820004838E498F8E499F9C3E49AFAE49BFB22EB20E7CFE920E7E0B90010BB0008E88AA8
:20484000F084F8AAF022E4FBC8FA22EB70227B10C833C8C933C9335007C39AC3DBF28006E0
:204860009A50012ADBEAC833F4C8C933F4C9FA2275F008E4C833C8C933C933C99AC99B50AF
:2048800004C92AC93BD5F0ECFBC833F4C8E4C9FA22600D08C6A2E713C618C613C6D5E0F3F5
:2048A00022600C08C6C313C618C613C6D5E0F422700422600D18C6C333C608C633C6D5E065
:2048C000F41822251A10AF08F51A400C151B8008F51A4002151BD2AF2200C0D0251A10AFDF
:2048E00008F51A500C051B8008F51A5002051BD2AFD0D022251AF58210AF08F51A400C15EC
:204900001B8008F51A4002151BD2AF851B8322251AF582E4351BF58322251AF8E4351BF9C5
:2049200022251AFAE4351BFB22251AFCE4351BFD22E473251AC582C0E0E51B34FFC583C085
:20494000E0E51AC3958224F810AF0885831B85821A800885831B85821AD2AFCEF0A3E520C4
:20496000F0A3780AE608F0A3DEFAEFF0A3E58124FAF8E608F0A3E608F0A3E608F0A3080838
:20498000E608F0A3E608F0A315811581D0E0FED0E0F8158115811581E8C0E0EEC0E0222574
:2049A0001AC582C0E0E51B34FFC583C0E0E51AC3958224F910AF0885831B85821A800885CD
:2049C000831B85821AD2AFCEF0A3E520F0A3780AE608F0A3DEFAEFF0A3E58124FBF8E608D6
:2049E000F0A3E608F0A30808E608F0A3E608F0A315811581D0E0FED0E0F815811581E8C03B
:204A0000E0EEC0E022851B83851A82E0A3FEE0A3F520780AE0A3F608DFFAE0A3FFE0A3C008
:204A2000E0E0A3C0E0E0A3C0E0E0A3C0E0E0A3C0E010AF0885821A85831B800885821A85D1
:204A4000831BD2AFD083D0820243ED851B83851A82E0A3FEE0A3F520780AE0A3F608DFFA27
:204A6000E0A3FFE0A3C0E0E0A3C0E0E0A3C0E0E0A3C0E010AF0885821A85831B800885828E
:204A80001A85831BD2AFD083D08222C0D0251AC582C0E0E51B34FFC583C0E0E51AC39582E7
:204AA00024F310AF0885831B85821A800885831B85821AD2AFC8F0A3E9F0A3EAF0A3EBF058
:204AC000A3790AE709F0A3D8FAECF0A3EDF0A3EEF0A3EFF0A3D0E0F0A3D0E0F0A3D0E0F033
:204AE000A3E520F0A3E5F0F0A322851B83851A82E0C0E0A3E0F9A3E0FAA3E0FBA3780AE0B1
:204B0000F608A3DFFAE0FCA3E0FDA3E0FEA3E0FFA3E0C0E0A3E0C0E0A3E0F5D0A3E0F52096
:204B2000A3E0A3F5F010AF0885831B85821A800885831B85821AD2AFD082D083D0E0F8D0F5
:204B4000E03274048006740280027401C0E0F4041248F4D0E01247C922740480047402800C
:204B600000CCC0E0EDC0E0E51AC39CCCAD1B50011D10AF068C1A8D1B80068C1A8D1BD2AF74
:204B80001247D6D0E0FDD0E0FC22D083D082C5F0E493A3C5F0C395F0F5F0E493A3C395F0B3
:204BA0004005E5F0048001E475F002A42582F582E5F03583F583E493A3C0E0E493C0E02251
:204BC000D083D082E9C0E0E493A3C386F0C5F095F0F908E493A386F0C5F095F0700BE4935D
:204BE000A3C3994005E9048002A3E475F002A42582F582E5F03583F583D0E0F9E493A3C0CA
:204C0000E0E493C0E022D083D082E9C0E0E493A3C386F0C5F095F0F908E493A386F0C5F07A
:204C200095F0702408E493A386F0C5F095F0701908E493A386F0C5F095F0700E08E493A38E
:204C4000C3994007E9048004A3A3A3E475F002A42582F582E5F03583F583D0E0F9E493A382
:204C6000C0E0E493C0E022D083D082CCC0E0E493A36006124C911470FAE493A36006124C7F
:204C8000B01470FAD0E0FCE493A3C0E0E493C0E022C0E0E493A3D39C5010E493A3C39C4005
:204CA0000AD0E0D0E0D0E0024C84A3A3A3D0E022C0E0E493A36C7009D0E0D0E0D0E0024C50
:204CC00084A3A3D0E022D083D082ECC0E0EDC0E0E493A3FCE493A3FDED4C600D124D12EC4A
:204CE00024FFFCED34FFFD80EFE493A3FCE493A3FDED4C600D124D51EC24FFFCED34FFFD5E
:204D000080EFD0E0FDD0E0FCE493A3C0E0E493C0E022C0E0C3E49396087401939618400F5B
:204D2000E49366700808740193661870007019A3A3C3E49396087401939618A3A3400DD060
:204D4000E0D0E0D0E0024D02A3A3A3A3A3A3D0E022C0E0C0F088F0E49366700808740193F1
:204D600066187000A8F0A3A3700BD0F0D0E0D0E0D0E0024D02A3A3D0F0D0E022D083D0824E
:204D8000ECC0E0EDC0E0EEC0E0EFC0E0E493A3FCE493A3FDE493A3FEE493A3FFEF4E4D4CA9
:204DA0006015124DF8EC24FFFCED34FFFDEE34FFFEEF34FFFF80E5E493A3FCE493A3FDE449
:204DC00093A3FEE493A3FFEF4E4D4C6015124E35EC24FFFCED34FFFDEE34FFFEEF34FFFF3E
:204DE00080E5D0E0FFD0E0FED0E0FDD0E0FCE493A3C0E0E493C0E022C0E0C0F088F0124487
:204E0000C2A8F0400712441AA8F0701AA3A3A3A31244C2A8F0A3A3A3A34013D0F0D0E0D004
:204E2000E0D0E0024DE2A3A3A3A3A3A3A3A3A3A3D0F0D0E022C0E0C0F088F012441AA8F0F1
:204E4000A3A3A3A3700BD0F0D0E0D0E0D0E0024DE2A3A3D0F0D0E022C0E074F0124A8BA2E5
:204E6000AFE433FFD2AFE589F8E5AB58F50C6063F4F589C2C59009647401F0751C00FA9064
:204E80000961E0F9126D347E008E0A750B007402780A1248B0124F53C3E89408E9940050BC
:204EA0002BE85407F8E50CB800028004C313D8FCA2E05018750A00750B01EE780A1248B04F
:204EC000AA0AAB0B900280E0F9126CC80EEEC3940440B6EFA2E092AF7F03024AEAC0E0746C
:204EE000F0124A8BA2AFE433FFD2AFE58AF8E58D58F50C605CF4F58AC2EB7E008E0A750B4F
:204F0000007402780A1248B0124F53E82400FAE934FFFBC3EA9408EB9400502BE85407F840
:204F2000E50CB800028004C313D8FCA2E05018750A00750B01EE780A1248B0AA0AAB0B903A
:204F40000280E0F9126CC80EEEC3940440AE126E1E8080124FC0F922C0E074F0124A8BA204
:204F6000AFE433FFD2AFE58BF8E5AC58F50C604DF4F58BC2E87E008E0A750B007402780A40
:204F80001248B0124FC0C39402402BE85407F8E50CB800028004C313D8FCA2E05018750AA5
:204FA00000750B01EE780A1248B0AA0AAB0B900280E0F9126CC80EEEC3940440BA024ED3E7
:204FC0007497250AF582740B350BF583E0F8A3E02274F512499FEAFEEBFFEE2434F8EF34D6
:204FE00000F9880A890BEE2435F582EF3400F583E0F8EE2437F582EF3400F583E0F50CEC39
:20500000850CF0A4FCAAF0850CF0EDA42AFDE82CF8E43DF97A257B00124838EA850A82854A
:205020000B83F0F8740758F97401B900028004C333D9FCFAE8131313541FF8EE28F8EF34F8
:2050400000F9E8245DF582E93400F583E05A6008EE2434F582EF802CEE2434F582EF340008
:20506000F583E0C0E0EE2436F582EF3400F583E0F5F0D0E084A8F0EE28F8EF3400F9E82417
:2050800038F582E93400F583E0F97F04024A4B74F512499FEAFEEBFFEE2434F582EF3400C4
:2050A000F583E0C0E0EE2435F582EF3400F583D0E0F08E828F83A3A3A3A3A3A3A3C082C066
:2050C000838E828F83A3A3A3A3A3E0F8A3E0F9D083D082E0C398F50AA3E099F50BEE247F1C
:2050E000F582EF3400F583E064017069EE2480F582EF3400F583E0F8A3E0F98E828F83A3C3
:20510000A3A3A3A3A3A3E0FCA3E0FD8E828F83A3A3A3A3A3E0FAA3E0FBC3EA9CEB9D501087
:20512000C3EC98ED99402EC3EA98EB995027800EC3EA98EB994007C3EC98ED9940177C5F57
:205140007D06EEFAEFFB126848EE247FF582EF3400F583E4F0EE2434F8EF3400F9E8FCE99A
:20516000FDEE2435F582EF3400F583E0F8EE2437F582EF3400F583E0F50CE50A850CF0A4B1
:20518000F50AAAF0850CF0E50BA42AF50BE8250AF8E4350BF97A257B00124838EA8C828DDA
:2051A00083F0F8740758F97401B900028004C333D9FCFAE8131313541FF8EE28F8EF340082
:2051C000F9E8245DF582E93400F583E05A6008EE2434F582EF802CEE2434F582EF3400F592
:2051E00083E0C0E0EE2436F582EF3400F583E0F5F0D0E084A8F0EE28F8EF3400F9E8243853
:20520000F582E93400F583E0F9125E0B02508AC082C083851A82851B83E0F8A3E0F9C3EA88
:205220009CEB9D5010C3EC98ED99401BC3EA98EB995014800EC3EA98EB994007C3EC98EDC3
:20524000994004790180027900D083D08222EAC39CFAEB9DFB2274EF12499F900525E064F2
:20526000086005E06407702A9061C8E06024900553E0F4601DE0F875F003A4C8AAF02AF91D
:20528000745528FE740539FF8E828F83A3A3A3E07003025386906060E0C0E0EE2468F58274
:2052A000EF3400F583D0E0F0750EDF750F06750A00750B00E5D914F50CE5D95403F510607B
:2052C0001774036510605CE50C6010EE2467F582EF3400F583E0700302536B9006DAE0645C
:2052E00001602AEE2482F582EF3400F583E06004780480027800850C0AE50AC398FA95E06F
:20530000FB1266E08A0A8B0BEA450B7005126A948074EE2482F582EF3400F583E070048AD9
:205320000E8B0FE50C6012850E82850F83F50DE5D9F0A3150DE50D70F6EE2482F582EF343B
:2053400000F583E0604474FC250CF50C780E124B46AC0CA910EEFAEFFB1268E47402124815
:20536000D9E97026AA0AAB0B126EDE793D8E828F83A3A3A3A3E0FA7B001265BAEEFAEFFB51
:2053800012686012691479008074740365106056850C127513007812124B46AC0EAD0FAA1D
:2053A0000AAB0B1268C074021248D9EE2468F582EF3400F583E064807004747F8001E0F53D
:2053C0000E780E124B4AE510F50E780E124B4AA90CAC0AAD0B900553E0FA7B0012657E74A4
:2053E000021248D98013900525E06408600BAC0EAD0FEEFAEFFB12696E126AA079017F0A24
:20540000024A4B74F512499F74FC1248C3EAFEEBFF890AA2AFE433F50BC2AF806AEE246368
:20542000F8EF3400F97A007B00A2AFE433F50CC2AF88828983E0FCA3E0FDEC4D603A88823A
:205440008983E0FAA3E0FB8A828B83E0FCA3E0FD88828983ECF0A3EDF08A828B83E4F0A36F
:20546000F088828983E0FCA3E0FDEC4D700A88828983A3A3E4F0A3F0E50CA2E092AF126E20
:20548000DE900666E004F0EE2463F582EF3400F583E0F8A3E0F9E849603DEE2463F582EFDA
:2054A0003400F583E02402FAA3E03400FBEA2402F50CEB3400F50D780C124B468A828B831B
:2054C000E0FCA3E0F9EEFAEFFB12688474021248D9E9700302541D900666E0606390066790
:2054E000E0F8900666E0C398500C7402650A7050900668E0604A8E828F83A3A3A3A3E08501
:205500001A82851B83F0A3E4F0900666E0F8740212490FE8F0A3E4F0900666E0F890066593
:20552000E028F0740212490FAC82AD83851A82851B83AA82AB837901126584900666E4F052
:20554000E50BA2E092AF74041248D902508AFFFF852E87852FC622C0E0C0D0E8C0E0E9C0DC
:20556000E0EAC0E0EBC0E0ECC0E0EDC0E0EEC0E0C00AC00BC00CC00DC082C083C0F0A2AFDB
:20558000E433FEC2AF759B00906182E0A2E05012E591A2E0500C7591FE7401652E70031259
:2055A0005256E0A2E55051E591A2E5504B7591DF900525E064076005E0640870237401659B
:2055C0002E70357901900553E0FA75F003A4CAA8F028FB74552AFA74053BFB12540380188E
:2055E000E0640D7013900547E004F064287002E4F07A00E0F9126AA6906182E0A2E64003C2
:2056000002569EE591A2E6400302569E7591BF900525E0640570081269A41269B08003123E
:2056200069AA752E00126A1CE9900526F079001269FE1267A67A017B00900524E0F9126C71
:20564000C8907803E0644270559006DEE014F0704DC2AF125656007837D0E0F618D0E0F6D5
:20566000E59F54077005750BFF8003750B7FC4C0E07836E6F50A08E6550BF50B740B780A8F
:205680001248A1D0E0250AF8906270E0A2E740F8E8C333906272F0906270E0D2E0F090612E
:2056A00081E0A2E35009E5E9A2E3500375E9F7A3E0A2E75009E591A2E7500375917FEEA2E4
:2056C000E092AFD0F0D083D082D00DD00CD00BD00AD0E0FED0E0FDD0E0FCD0E0FBD0E0FA7A
:2056E000D0E0F9D0E0F8D0D0D0E032C0E0C0D0C082C083906183E0A2E05009E5BFA2E0507D
:205700000375BFFEE0A2E15009E5BFA2E1500375BFFDE0A2E25009E5BFA2E2500375BFFB86
:20572000E0A2E35009E5BFA2E3500375BFF7E0A2E45009E5BFA2E4500375BFEFE0A2E550EE
:2057400009E5BFA2E5500375BFDFE0A2E65009E5BFA2E6500375BFBFD083D0828088C0E02F
:20576000C0D0E8C0E0E9C0E0EAC0E0EBC0E0ECC0E0EDC0E0C0F0E5A7A2E6500FE5A1A2E629
:20578000500953A7BF75A1BF1257C3E5A7A2E5500CE5A1A2E5500653A7DF75A1DFE5A7A228
:2057A000E15009E5A1A2E1500375A1FDE5A7A2E2500CE5A1A2E2500653A7FB75A1FBD0F0AE
:2057C0000256D474F812499F752E01900525E0640670151269328A828B83A3A3A3A3A3A371
:2057E000E0FAA3E0FB126992A2AFE433FED2AF90052BE0640170187A207B00900524E0F929
:20580000126D647A207B00900524E0F9126CCE906182E0D2E6F09006DBE0602185C62F80EB
:205820001690052AE064017008E5C654F84405F5C653BEFC1255507401652E60E4EEA2E05B
:2058400092AF7F01024A4BFF8E308F31858235858334851A82851B83E0CEA3E0CF8535827B
:20586000853483EBC9EAC8EDCBECCA75F010C3E833C8E933C9EA33CAEB33CBC3EA9EF533D5
:20588000EB9FF532B35004AB32AA33EC33CCED33CDD5F0DAAE30AF312274E912499F74F87C
:2058A0001248C3851A82851B83ECF0A3EDF08A0A8B0B900525E024F7C394055006750A011A
:2058C000025A301269328A0C8B0DAE0CAF0DEE4F7003025A2DAC0AAD0B740212490FAA8238
:2058E000AB831269C28E828F83A3A3750EFF750FFF7510FF751100780E1247047402124912
:205900000F7512FF7513FF7514FF7515007812124704780E7912124483502A780E791212EB
:2059200046C9750A01750BC8750C00750D00780A790E1244835052850E0A850F0B85100C2C
:2059400085110D80507516017517C875180075190085120A85130B85140C85150D780A794E
:205960000E1246C97816790A124483401C750A00750B00750C00750D01780A79121246C981
:20598000780A790E124690800C750A01750B00750C00750D007409780A124671750E19F52E
:2059A0000FF510F511780A790E1245568E828F83A3A3A3A3A3A3E0F8A3E0F97AD07B0312F5
:2059C0004838880E890FE4F510F511780A790E124690740612490FE0F8A3E0F97AD07B0339
:2059E000124838E8FA8A0EE4F50F780A790E1244835007780A790E1246C9900525E064084A
:205A0000600AE064066005E06405702D750E0D780E790A1244834021750EF4750FFF751035
:205A2000FF7511FF780A790E124690800C750A00750B00750C00750D00851A82851B83E03F
:205A4000F8A3E0F5838882780A12477274081248D97F10024A4B74F712499F1269D49006DD
:205A6000D9E064017010906245E4F0A3F053F4F343FE0C5390F3126980E5C654804449F591
:205A8000C6E59E547F644970F8906185740FF09006D7E0F47002A3E0604E9006D8E0600852
:205AA00014601B14602E8040750A01750B009006D7E0780A1248B0E50AF45280802A750A3E
:205AC00001750B009006D7E0780A1248B0E50AF452908014750A01750B009006D7E0780A44
:205AE0001248B0E50AF452A079007F02024A4B74F712499FE9FEEAFF74016E700C7A807B2D
:205B000000900524E0F9126CC8906F60E493F46008E493F912679A800953C680E59E547F80
:205B200070FA1269869006D9E0640170031267BE9006D7E0F47002A3E0604B9006D8E0600D
:205B40000814601A14602C803D750A01750B009006D7E0780A1248B0E50A42808028750AA1
:205B600001750B009006D7E0780A1248B0E50A42908013750A01750B009006D7E0780A1296
:205B800048B0E50A42A01269D41269328A0A8B0BA80AA90BE8496015E5E170FCE82414F5C3
:205BA00082E93400F583E0F46003E0F5E174016F700A7A01900524E0F9126D34025AEA7409
:205BC000ED12499F8A0A8B0B8C0C8D0D741312490F780E124763780A790E124483751201E5
:205BE0007513C87514007515005012780A790E1246C97812790A12448350168010780E79DB
:205C00000A1246C97812790E12448340047901800279007F0C024A4B74ED12499F8A0A8B1A
:205C20000B8C0C8D0D741312490F780E124763780E790A1244834011780A790E1246C9AAED
:205C40000AAB0BAC0CAD0D80227512007513007514007515017812790E1246C97812790A0E
:205C6000124690AA12AB13AC14AD1580A68A828B83750AFF750BFF750CFF750D00780A126D
:205C800047177F04024A4B74F512499F8C828D83780A1247638A828B83780A1246DDEA24EE
:205CA00004F8EB3400F98C828D83A3A3A3A3E0FCA3E0FD88828983C3E09CF0A3E09DF088ED
:205CC000828983C3E09420A3E0944E40268A828B83750AFF750BFF750CFF750DFF780A1268
:205CE00046B68A828B83A3A3A3A3E02420F0A3E0344EF0025C6D74F512499FE9FE90067AD4
:205D0000E0FAA3E0FBEEC333F8E433F974AD28F582748539F583E02AF50AA3E03BF50B7896
:205D20000A124B467A407B427C0F7D0012584874021248D98A0A8B0B8C0C8D0D7410780A7A
:205D4000124658AA0AAB0B7F04024A4B74F112499F8A0E8B0F8C108D11740F12490FE0FA7D
:205D6000A3E0FB741112490FE0F50AA3E0F50B780A124B46EA2401F50AEB3400F50BE4F529
:205D80000CF50D780E790A1244D6750A71750B02780E790A1244D6AA0EAB0FAC10AD11121B
:205DA000584874021248D98B0BEA450B60047A0180027A00EC2AFCED3400FD741312490FCE
:205DC000E0F8A3E0F9E8FEE9FFECF8EDF97A717B02124838880A890B8E828F83780A1247BA
:205DE00072ECF8EDF97A717B021248388A0A8B0B7405780A1248B08E828F83A3A3A3A3E5AB
:205E00000AF0A3E50BF07F08024A4BC082C083E9906000F0D083D08222C2AF02000022C07D
:205E2000E074F2124A8BA2AFE433FED2AFC2C0E5D1A2E4500653D1EF126E54751C00EEA232
:205E4000E092AF7F01024AEAC0E0C0D0E8C0E0E9C0E0E5A8D2AFC2C7751C00A2E7A2E7925E
:205E6000AFD0E0F9D0E0F8D0D0D0E032C0E0C0D0E8C0E0E9C0E0C00AC00BC082C083A2AFF4
:205E8000E433F9D2AF900AE8E0F8A3E0687008539AFBA374018020C2E9900AE8125F7B7487
:205EA00068250AF582E4340AF583E0F5C1900AE8E0C394804002E4F0E9A2E092AFD083D086
:205EC00082D00BD00AD0E0F9D0E0F8D0D0D0E032C0E0C0D0E8C0E0E9C0E0EAC0E0C082C0EB
:205EE00083A2AFE433FAD2AFE5F9C0E0900B0FE0F874EE28F582E4340AF583D0E0F0900B66
:205F00000EE0F8A3E0687006E595900B11F0900B0FE004F0C394204002E4F0A3E4F0EAA216
:205F2000E092AFD083D082D0E0FA8099C0E0C0D0E8C0E0E9C0E0C00AC00BC082C083A2AF2C
:205F4000E433F9D2AF900B92E0F8A3E0687008539AF7A374018020C2EA900B92125F7B7473
:205F600012250AF582E4340BF583E0F5F9900B92E0C394804002E4F0025EB8E0F50A74019A
:205F8000250AF0221243F0FE85041243F0C286041243F03E89041243F09389041243F0E9C0
:205FA00089041243F0FE89041243F08B8A041243F0138B041243F09D9A031243F0859B0358
:205FC0001243F0AB9D031243F0519E031243F0D59E031243F05DA0031243F029A103124393
:205FE000F043A1031243F0C8A1031243F063A2031243F042A3031243F078A3031243F0C037
:20600000A5031243F00080011243F01C80011243F0FF81011243F0BA82011243F01C830103
:206020001243F06483011243F08D83011243F0DF84011243F06185011243F0E28501124306
:20604000F05B86011243F06B87011243F0F487011243F0198A011243F06791011243F0B257
:2060600091011243F0E291011243F04392011243F07092011243F0DCB9011243F051BA0146
:206080001243F0E1BA011243F099BE011243F044C4011243F074C4011243F063CB011243ED
:2060A000F04FCC011243F0B0CC011243F0CCCD011243F01FCF011243F063CF011243F0152D
:2060C000D1011243F0EFD1011243F0AEBD041243F0C5BD041243F0F6BD041243F031BE0435
:2060E0001243F05BBE041243F085BE041243F09CBE041243F0B3BE041243F0CABE0412432F
:20610000F0F3BE041243F006BF041243F01CBF041243F02FBF041243F056BF041243F0D0FE
:20612000C8031243F0D4C9031243F00CCA031243F02FCA031243F03ACA031243F05DCA0395
:206140001243F06CCB031243F041CC031243F0BCCC031243F044CD031243F07FCD03124359
:20616000F0B6CD031243F044CE031243F01DCF031243F07DCF031243F088CF031243F0079C
:20618000D0031243F00AD0031243F00DD0031243F09CD0031243F09FD0031243F0CFD00393
:2061A0001243F0F9D0031243F0E7D1031243F099D2031243F00AD3031243F002D403124383
:2061C000F036D4031243F0B8D4031243F000D5031243F064D5031243F0F1D5031243F0AB52
:2061E000D6031243F0BAD9031243F045DB031243F068DB031243F0099C041243F0319C04F4
:206200001243F05F9C041243F0969C041243F0F49C041243F03F9D041243F08A9D041243FC
:20622000F0CA9D041243F0109E041243F03E9E041243F0FB9E041243F0059F041243F012C1
:206240009F041243F0459F041243F011A0041243F01DA0041243F035A0041243F03FA00428
:206260001243F059C7041243F071C7041243F089C7041243F072A6031243F04EA7031243A9
:20628000F0B2A8031243F009A9031243F08AA9031243F07AAA031243F0C7AA031243F04D85
:2062A000AB031243F07FAB031243F093AD031243F0D5AD031243F0F3AD031243F076AE0318
:2062C0001243F04AAF031243F012B0031243F048EC031243F01BED031243F0C4ED03124359
:2062E000F017EE031243F0C7EE031243F053EF031243F03FF0031243F06EF0031243F0813C
:20630000F1031243F0C9F1031243F09EF2031243F0DAF2031243F0F6F2031243F08CAD04E9
:206320001243F0B2AD041243F0CEAE041243F0D8AE041243F00DB0041243F005B1041243C7
:20634000F00FB1041243F0E296041243F01298041243F04598041243F08F98041243F056A4
:206360009A041243F0646F001243F0CE6F001243F02D71001243F0B771001243F0C7710018
:206380001243F0F471001243F05072001243F05773001243F02174001243F08175001243D3
:2063A000F0C475001243F06976001243F0B676001243F0DC76001243F0EA78001243F0EFAD
:2063C00078001243F0F47A001243F0417B001243F0B47B001243F0E77B001243F0897C002C
:2063E0001243F0327D001243F06A7D001243F06D7D001243F0B57D001243F0F57D001243CB
:20640000F04C7E001243F019B1041243F031B1041243F079B1041243F08FB1041243F0D66D
:20642000B1041243F0EAB2041243F077B3041243F0C2B3041243F00080021243F03B8002C8
:206440001243F08080021243F04081021243F0CF81021243F05582021243F0BA8202124360
:20646000F0E682021243F01F83021243F05D85021243F04187021243F02789021243F06AFB
:206480008A021243F0B88C021243F0CA8D021243F0158F021243F02590021243F042900247
:2064A0001243F07D90021243F09F90021243F00291021243F0C395021243F058960212430F
:2064C000F0AA96021243F0C896021243F02297021243F00B98021243F08199021243F00550
:2064E0009A021243F0C88B041243F0D28B041243F0158C041243F0308C041243F0C08C043A
:206500001243F0E88C041243F0258D041243F05C8D041243F0858D041243F0FA8D04124311
:20652000F00F8E041243F0248E041243F0468E041243F08F8E041243F0B48E041243F0EE8E
:206540008E041243F01A8F041243F0488F041243F0938F041243F00390041243F071900406
:206560001243F07C90041243F0A790041243F0F090041243F01A91041243F0459104124315
:20658000F035C5041243F040DE021243F08EDF021243F06EE0021243F08DE0021243F00A5C
:2065A000E1021243F04DE1021243F0A3E2021243F053E3021243F08CE5021243F013E80240
:2065C0001243F0B4E8021243F0AAE9021243F0A7EA021243F001EC021243F08CEC021243DE
:2065E000F0AAC2041243F013C3041243F067C3041243F08EC3041243F0BFC3041243F045BA
:20660000A5041243F0B2A5041243F0F9A5041243F011A7041243F00DA8041243F0F0A8046A
:206620001243F093DC031243F0D5DC031243F0A7DD031243F080DE031243F07ADF03124342
:20664000F05CE0031243F0C5E0031243F07BE1031243F0EFE1031243F05BE2031243F08414
:20666000E2031243F0FEE2031243F097E3031243F0FCE3031243F011E4031243F057E40364
:206680001243F070E4031243F0D5E4031243F0D8E4031243F0ECB3041243F014B40412430B
:2066A000F052B4041243F010B5041243F077B5041243F093B5041243F0BBB5041243F0EBE3
:2066C000B5041243F0FAB5041243F077B6041243F0D1C9021243F0F2CB021243F024CE0275
:2066E0001243F060CE021243F08DCE021243F07BCF021243F0C6CF021243F011D002124399
:20670000F046D0021243F094D0021243F0C3D0021243F0E6D0021243F033D1021243F0B8A7
:20672000D1021243F0D2D3021243F011D6021243F052D6021243F0F6D7021243F037D80293
:206740001243F030D9021243F03DDB021243F0B0DB021243F0FCDB021243F0AADC02124378
:20676000F07BDD021243F0AFDD021243F019DE021243F0888D031243F0868E031243F01FA1
:2067800095031243F04097031243F00B99031243F0739A031243F06C9A021243F01B9B02B7
:2067A0001243F0489B021243F08E9B021243F0C49C021243F0229D021243F0479D02124312
:2067C000F0DD9E021243F0619F021243F0DB9F021243F035A1021243F095A2021243F09BC9
:2067E000A3021243F0FCA4021243F04EA5021243F0BFA6021243F0D8A6021243F036A7023E
:206800001243F05AA7021243F048A8021243F07BA8021243F0EBA8021243F065A90212430B
:20682000F0AFA9021243F079AA021243F04EAB021243F02DAC021243F0B8AC021243F0262E
:20684000AD021243F09AAD021243F0C5AD021243F084AE021243F0E9AF021243F006B002ED
:206860001243F025B0021243F016B1021243F03BB1021243F065B1021243F0E0B102124331
:20688000F03AB2021243F0A3B3021243F051B4021243F092B4021243F00DED021243F05BC3
:2068A000ED021243F067ED021243F045EE021243F076EE021243F0A7EE021243F027EF02F0
:2068C0001243F05FEF021243F0B1EF021243F0EEEF021243F00BF2021243F031F402124313
:2068E000F01CF6021243F006F8021243F0F37F001243F0E1FA021243F085FB021243F05713
:20690000FC021243F081FC021243F0CFFE021243F01AD2011243F064D2011243F056E00177
